:100000000C9434000C943E000C943E000C943E0082
:100010000C943E000C943E000C943E000C943E0068
:100020000C943E000C943E000C943E000C943E0058
:100030000C943E000C943E000C943E000C943E0048
:100040000C943E000C943E000C943E000C943E0038
:100050000C943E000C943E000C943E000C943E0028
:100060000C943E000C943E0011241FBECFEFD8E04C
:10007000DEBFCDBF0E94A9000C94DE000C940000EE
:10008000811102C05F9A08955F9808955F9A2FEFDB
:1000900084E39CE0215080409040E1F700C00000E4
:1000A00081E00E9440002FEF84E39CE021508040DB
:1000B0009040E1F700C0000008955F9A2FEF8EE9AD
:1000C00094E2215080409040E1F700C0000081E0C0
:1000D0000E9440002FEF84E39CE02150804090403C
:1000E000E1F700C000000895811103C083B1817061
:1000F0000895813021F483B186958170089582300E
:1001000029F483B182FB882780F90895833029F48C
:1001100083B183FB882780F90895843021F483B16B
:10012000829581700895853029F483B185FB8827F5
:1001300080F90895863029F483B186FB882780F9F9
:100140000895873029F483B1881F8827881F089570
:100150000895579A84B184B985B1886385B983E0DD
:100160000E947400D82F84E00E947400C82F85E09C
:100170000E947400D11110C00E9446000E944600E7
:100180000E945D002FEF84E39CE02150804090406E
:10019000E1F700C00000E3CFC11107C00E94460094
:1001A0000E9446000E944600EDCF8111D8CF0E94E8
:1001B0005D000E9446000E945D00F4CFF894FFCFDE
:00000001FF
