:100000000C9434000C9449000C9449000C94490061
:100010000C9449000C9449000C9449000C9449003C
:100020000C9449000C9449000C9449000C9449002C
:100030000C9449000C9449000C9449000C9449001C
:100040000C9449000C9449000C9449000C9449000C
:100050000C9449000C9449000C9449000C944900FC
:100060000C9449000C94490011241FBECFEFD8E036
:10007000DEBFCDBF11E0A0E0B1E0E2E7F8E002C0F2
:1000800005900D92A232B107D9F70E942B010C9472
:1000900037040C940000EF92FF920F931F93CF93BD
:1000A000DF9303E0D0E0C0E011E0812F0E94F50073
:1000B000CC0FDD1F80FBEE24E0F8F12CCE0DDF1D10
:1000C0001F5F163091F7015079F7CE01DF91CF9184
:1000D0001F910F91FF90EF900C94C9039BB19F70FB
:1000E0009BB99BB1807F892B8BB9299A299A299832
:1000F0000895CF93C82F28980E946E008C2F829568
:10010000807F0E946E008FE39FE10197F1F700C0AE
:100110000000CF910895811104C080E8860F0C94EF
:10012000790080ECFBCF8AB1806F8AB984B183609B
:1001300084B98FE59AEE0197F1F700C0000080E3E3
:100140000E946E008FE19EE40197F1F700C000006D
:1001500080E30E946E008FED91E00197F1F700C0FF
:10016000000080E30E946E0080E20E946E008FE338
:100170009FE10197F1F700C0000088E20E9479003A
:100180008FE00C947900CF93C82F289A0E946E00BC
:100190008C2F8295807F0E946E008FE39FE10197F4
:1001A000F1F700C00000CF910895CF93DF93EC01E9
:1001B0008991811103C0DF91CF9108950E94C300FE
:1001C000F7CFECE7F0E080818F7B808380818064D3
:1001D0008083808180628083EAE7F0E080818760AD
:1001E0008083808180688083089590917C00907FD7
:1001F00090937C00811111C080917C00807F80935E
:100200007C0080917A00806480937A0080917A00EB
:1002100086FDFCCF809179000895813021F4809192
:100220007C008160ECCF823021F480917C00826080
:10023000E6CF833021F480917C008360E0CF84306E
:1002400021F480917C008460DACF8530D1F68091F2
:100250007C008560D4CF0E94930081E00E947900E9
:100260000E94E1000E944B0064E080E00E948B004D
:1002700084E091E00E94D50064E081E00E948B0060
:100280008DE091E00E94D5002FEF83ED90E32150A7
:1002900080409040E1F700C0000081E00E947900BA
:1002A0000E94C40360E170E00E942102EC01682F0B
:1002B00080E00E948B0083E191E00E94D50060E025
:1002C00081E00E948B0085E191E00E94D50010E062
:1002D00000E0D12CC12C8FE0A82E80E00E94F50018
:1002E00080E00E94F500863008F080C0CF30D10554
:1002F000B9F18FE19EE40197F1F700C0000080E0C2
:100300000E94F500863040F480E00E94F500F7CFAF
:1003100010E000E06701E1CF8FE19EE40197F1F783
:1003200000C000007E019FEFE91AF90A6C2F80E0FF
:100330000E948B0087E191E00E94D5006E2D80E045
:100340000E948B0083E191E00E94D5002FEF81EEA7
:1003500094E0215080409040E1F700C00000E701A8
:1003600083E00E94F5008A9DB0011124072E000C45
:10037000880B990B0E94EC0220E030E04FE753E439
:100380000E9449020E94BB02B62EE62EF12CEC140C
:10039000FD0481F06C2D81E00E948B0087E191E0EB
:1003A0000E94D5006B2D81E00E948B0085E191E0D9
:1003B0000E94D5008FE39CE90197F1F700C000008F
:1003C000EC16FD0609F0A4CF0F5F1F4F083C110586
:1003D00009F0A0CF81E00E94790060E080E00E94F7
:1003E0008B0089E191E00E94D500FFCF80E00E9460
:1003F000F500813A08F0B4CF80E00E94F50086391C
:1004000008F4AECF1C161D060CF0AACF8FE19EE4B7
:100410000197F1F700C0000080E00E94F500813AEA
:1004200028F480E00E94F5008639B0F78FE19EE461
:100430000197F1F700C000007E0191E0E91AF10890
:1004400075CF97FB072E16F4009407D077FD09D0DF
:100450000E94350207FC05D03EF4909581959F4F90
:100460000895709561957F4F0895AA1BBB1B51E1BC
:1004700007C0AA1FBB1FA617B70710F0A61BB70B14
:10048000881F991F5A95A9F780959095BC01CD01B9
:1004900008950E945D020C943E030E94370358F0B9
:1004A0000E94300340F029F45F3F29F00C942703A9
:1004B00051110C9472030C942D030E944F0368F3A6
:1004C0009923B1F3552391F3951B550BBB27AA270D
:1004D00062177307840738F09F5F5F4F220F331F47
:1004E000441FAA1FA9F335D00E2E3AF0E0E832D00F
:1004F00091505040E695001CCAF72BD0FE2F29D012
:10050000660F771F881FBB1F261737074807AB07E3
:10051000B0E809F0BB0B802DBF01FF2793585F4F58
:100520003AF09E3F510578F00C9427030C94720327
:100530005F3FE4F3983ED4F3869577956795B7953A
:10054000F7959F5FC9F7880F911D9695879597F945
:100550000895E1E0660F771F881FBB1F62177307BE
:100560008407BA0720F0621B730B840BBA0BEE1FD3
:1005700088F7E09508950E94570388F09F5798F0F8
:10058000B92F9927B751B0F0E1F0660F771F881F98
:10059000991F1AF0BA95C9F714C0B13091F00E94B2
:1005A0007103B1E008950C947103672F782F8827A9
:1005B000B85F39F0B93FCCF3869577956795B395D9
:1005C000D9F73EF490958095709561957F4F8F4F48
:1005D0009F4F0895E89409C097FB3EF4909580954D
:1005E000709561957F4F8F4F9F4F9923A9F0F92FF9
:1005F00096E9BB279395F695879577956795B79577
:10060000F111F8CFFAF4BB0F11F460FF1BC06F5F5C
:100610007F4F8F4F9F4F16C0882311F096E911C06E
:10062000772321F09EE8872F762F05C0662371F08F
:1006300096E8862F70E060E02AF09A95660F771FA3
:10064000881FDAF7880F9695879597F9089597F997
:100650009F6780E870E060E008959FEF80EC089568
:1006600000240A9416161706180609060895002491
:100670000A9412161306140605060895092E03940B
:10068000000C11F4882352F0BB0F40F4BF2B11F47F
:1006900060FF04C06F5F7F4F8F4F9F4F089557FDDE
:1006A0009058440F551F59F05F3F71F04795880FE0
:1006B00097FB991F61F09F3F79F087950895121677
:1006C00013061406551FF2CF4695F1DF08C0161623
:1006D00017061806991FF1CF8695710561050894D4
:1006E0000895E894BB2766277727CB0197F90895EB
:1006F0008F929F92AF92BF92CF92DF92EF92FF9232
:10070000CF93DF93EC01688179818A819B816115A8
:1007100071058105910521F464E279ED8BE597E09F
:100720002DE133EF41E050E00E94D40349015A012A
:100730009B01AC01A7EAB1E40E94F3036B017C01C9
:10074000ACEEB4EFA50194010E940104DC01CB01E1
:100750008C0D9D1DAE1DBF1DB7FF03C00197A109E4
:10076000B04888839983AA83BB839F77DF91CF9119
:10077000FF90EF90DF90CF90BF90AF909F908F90C1
:1007800008950E947803089580E091E00E94780324
:100790000895B0E0A0E08093000190930101A09340
:1007A0000201B09303010895052E97FB1EF40094F7
:1007B0000E94EB0357FD07D00E94060407FC03D0FC
:1007C0004EF40C94EB0350954095309521953F4F96
:1007D0004F4F5F4F089590958095709561957F4F2D
:1007E0008F4F9F4F08950E942804A59F900DB49F9E
:1007F000900DA49F800D911D11240895B7FF0C94B6
:10080000F3030E94F303821B930B0895A1E21A2EB7
:10081000AA1BBB1BFD010DC0AA1FBB1FEE1FFF1FA4
:10082000A217B307E407F50720F0A21BB30BE40BF4
:10083000F50B661F771F881F991F1A9469F760953B
:100840007095809590959B01AC01BD01CF010895F5
:10085000A29FB001B39FC001A39F700D811D112401
:10086000911DB29F700D811D1124911D0895F89462
:02087000FFCFB8
:100872000100000050656E656C6F7065004C61622E
:1008820020360058005E002000596F752077696E8F
:02089200210043
:00000001FF
