:100000000C9434000C9451000C9451000C94510049
:100010000C94E3000C9451000C9451000C9451008A
:100020000C9451000C9451000C9451000C9451000C
:100030000C9451000C9451000C9451000C945100FC
:100040000C9451000C9451000C9451000C945100EC
:100050000C9451000C9451000C9451000C945100DC
:100060000C9451000C94510011241FBECFEFD8E026
:10007000DEBFCDBF11E0A0E0B1E0E6E1FBE002C0F1
:1000800005900D92A434B107D9F721E0A4E4B1E0C2
:1000900001C01D92AA34B207E1F70E9465010C94D9
:1000A00089050C9400009BB19F709BB99BB1807F28
:1000B000892B8BB9299A299A29980895CF93C82F0B
:1000C00028980E9453008C2F8295807F0E945300B5
:1000D0008FE39FE10197F1F700C00000CF910895F1
:1000E000811104C080E8860F0C945E0080ECFBCF89
:1000F0008AB1806F8AB984B1836084B98FE59AEE42
:100100000197F1F700C0000080E30E9453008FE1E7
:100110009EE40197F1F700C0000080E30E945300C5
:100120008FED91E00197F1F700C0000080E30E949D
:10013000530080E20E9453008FE39FE10197F1F7A3
:1001400000C0000088E20E945E008FE00C945E0018
:10015000CF93C82F289A0E9453008C2F8295807FBE
:100160000E9453008FE39FE10197F1F700C0000068
:10017000CF910895CF93DF93EC018991811103C052
:10018000DF91CF9108950E94A800F7CF85B18861D3
:1001900085B9E8E6F0E0808182608083ECE6F0E0FB
:1001A0008081826280837894089505966AE070E089
:1001B0000E947C026150710908F4089585E38A95D4
:1001C000F1F70000F7CF1F920F920FB60F92112494
:1001D0008F939F9383B188708093490183B180711D
:1001E000809344018091450181112CC08091490187
:1001F000882341F081E080934601809148018F5F20
:100200008093480180914401882341F082E08093EB
:1002100046018091480181508093480190914601A8
:1002200080914501981739F081E0809347018091D2
:100230004601809345019F918F910F900FBE0F90C3
:100240001F90189580914501813099F48091490162
:10025000811107C01092460180914801815080931E
:100260004801809144018823C9F283E080934601CC
:1002700016C0809145018230B1F4809149018823F4
:1002800041F083E080934601809148018150809342
:100290004801809144018111C1CF109246018091A3
:1002A00048018F5FB9CF80914401811108C081E07E
:1002B000809346018091480181508093480180914C
:1002C00049018111ABCF82E0D1CFCF93DF93CDB77E
:1002D000DEB72C970FB6F894DEBF0FBECDBF1092DD
:1002E00047010E94780081E00E945E000E94C600E3
:1002F00060E080E00E94700080E091E00E94BA001F
:1003000063E081E00E94700080E191E00E94BA0009
:100310002FEF83ED90E3215080409040E1F700C043
:10032000000081E00E945E0083B1887080934901E3
:1003300083B1807180934401809144018111BDC0DB
:10034000809149018111B9C0109245018091450108
:100350008093460187B187B988B1866088B98AB130
:100360008C608AB960E080E00E9470008BE191E0CF
:100370000E94BA0060E081E00E9470001F928CE44D
:100380008F931F9288E48F9382E291E09F938F93E3
:100390001F9287E18F938E010F5F1F4F1F930F9363
:1003A0000E94A402C8010E94BA000FB6F894DEBFF2
:1003B0000FBECDBF8CE4E82E98E4F92EAA24A394B6
:1003C00023E3C22E21E0D22E37E1B32E42E2842E67
:1003D00041E0942E809147018823F1F0A11085C05F
:1003E000F090480160E081E00E9470001F92EF925F
:1003F0001F92FF92DF92CF921F92BF921F930F9393
:100400000E94A402C8010E94BA000FB6F894DEBF91
:100410000FBECDBF1092470196B186B18470782E81
:1004200091FD1BC060E081E00E9470001F92EF927E
:100430001F92FF92DF92CF921F92BF921F930F9352
:100440000E94A402C8010E94BA00F09248010FB6AF
:10045000F894DEBF0FBECDBFA12C71101CC060E0B0
:1004600081E00E9470001F92EF921F92FF929F9274
:100470008F921F92BF921F930F930E94A402C801F4
:100480000E94BA00E09248010FB6F894DEBF0FBE9A
:10049000CDBFAA24A3949FE49E1550F55A9A2CE34D
:1004A0002F1540F15B9A8FEF99EF20E0815090403B
:1004B0002040E1F700C000008DCF80914401811100
:1004C00008C080914901882321F081E08093450193
:1004D0003DCF80914401882331F080914901811101
:1004E00002C082E0F3CF83E0F1CFE09048017ACF01
:1004F0005A98D5CF5B98D7CF97FB072E16F4009468
:1005000007D077FD09D00E94900207FC05D03EF489
:10051000909581959F4F0895709561957F4F0895AF
:10052000AA1BBB1B51E107C0AA1FBB1FA617B70719
:1005300010F0A61BB70B881F991F5A95A9F7809535
:100540009095BC01CD010895AEE0B0E0EAEAF2E09A
:100550000C9460050D891E898F89988D26E02C8367
:100560001A83098397FF02C080E090E801979E8379
:100570008D83AE01455E5F4F698D7A8DCE01019608
:100580000E94D4024D815E8157FD0AC02F813885BB
:10059000421753070CF49A01020F131FF80110823F
:1005A0002E96E4E00C947C05ABE0B0E0EAEDF2E0DE
:1005B0000C9452057C013B018A01FC0117821682D2
:1005C000838181FFC8C1CE0101965C01F70193814F
:1005D000F30193FD859193FF81913F01882309F4F5
:1005E00053C1853239F493FD859193FF81913F0189
:1005F000853229F4B70190E00E94C404E7CF912C22
:10060000212C312CFFE1F31538F08B3211F190F4ED
:10061000803209F1833229F137FC3CC020ED280FEC
:100620002A3050F536FE20C08AE0989E200D112415
:10063000922E06C08D3291F0803371F7689430F8B5
:10064000F30193FD859193FF81913F018111DACFF1
:1006500021C0689431F8689432F8F2CF689433F886
:10066000EFCF689434F8ECCFEAE02E9E200D1124F1
:10067000222E689435F8E4CF8E3229F436FC04C17A
:10068000689436F8DDCF8C3619F4689437F8D8CFF3
:100690008836B1F2982F9F7D95549330E0F08336E1
:1006A000A1F18337C1F1833509F063C02801F2E07D
:1006B0004F0E511CF801C080D180692D70E036FCCE
:1006C00002C06FEF7FEFC6010E94AE044C01689438
:1006D00037F882010AC00C5F1F4FFFE3F9838824BB
:1006E0008394912C6501E89437F833FE2DC0522C89
:1006F0008114910471F5552009F468CFB70180E2A7
:1007000090E00E94C4045A94F6CFF8018081898356
:100710000E5F1F4FE4CF2801F2E04F0E511CF8018D
:10072000C080D180692D70E036FC02C06FEF7FEF92
:10073000C6010E94B9044C018201D5CFB70180E205
:1007400090E00E94C4042A942814190409F0B0F718
:10075000CECFF60137FC859137FE81916F01B7014D
:1007600090E00E94C40451105A94F1E08F1A91084D
:10077000BFCF843619F0893609F077C0F80137FE0B
:100780006BC060817181828193810C5F1F4FF32D5B
:10079000FF763F2E97FF09C09095809570956195E3
:1007A0007F4F8F4F9F4F689437F82AE030E0A501C4
:1007B0000E94F404C82ECA188C2C432C36FE0CC0A0
:1007C000E89440F8C91440F434FE05C032FC03C07C
:1007D000F32DFE7E4F2E892C44FE95C0FE01EC0DBC
:1007E000F11D8081803309F087C0242D297E422E9F
:1007F000842D8870582E43FC95C040FE8FC09C2CE1
:10080000821418F42C0C922C981844FE91C0B70155
:1008100080E390E00E94C40442FE09C088E790E0B3
:1008200041FE02C088E590E0B7010E94C404C914EB
:1008300008F48AC0CA94D12C9FEFC91AD90ACA0CED
:10084000DB1CF60182916F01B70190E00E94C404A5
:10085000AC14BD04B1F74FCF60817181072E000C3D
:10086000880B990B0E5F1F4F92CFD32CE894D4F8CE
:100870002AE030E0853739F1232D297FD22E8F36BB
:1008800001F148F48835A9F0F701868197812B960C
:10089000E2E10C946E05803749F08837A9F7D4FE61
:1008A00002C06894D2F820E130E00DC06894D4F81A
:1008B000F6CF34FE03C0822F8660D82E20E132E0CE
:1008C00002C028E030E0F801D7FE0FC060817181DE
:1008D000828193810C5F1F4FA5010E94F404C82EF2
:1008E000CA183D2CE89437F867CF6081718190E099
:1008F00080E00E5F1F4FF0CF42FC02C0839478CFA0
:100900008394839475CF842D867809F471CFF6CFC4
:10091000B70180E290E00E94C40483948214C0F383
:10092000512C73CF522C5818821408F46ECFF8CF84
:10093000842D867809F47BCF8BE241FE80E247FC70
:100940008DE2B70190E071CFB70180E390E00E94A3
:10095000C4049A946CCF8FEF9FEF99CFFC01059060
:10096000615070400110D8F7809590958E0F9F1FB1
:100970000895FC016150704001900110D8F78095F6
:1009800090958E0F9F1F08950F931F93CF93DF9322
:10099000182F092FEB018B8181FD09C01FEF0FEF8D
:1009A000812F902FDF91CF911F910F91089582FF9A
:1009B00014C02E813F818C819D81281739073CF41A
:1009C000E881F981CF0101969983888310838E8114
:1009D0009F8101969F838E83E3CFE885F985812FE0
:1009E0000995892BA1F3DACFFA01AA27283051F112
:1009F000203181F1E8946F936E7F6E5F7F4F8F4F50
:100A00009F4FAF4FB1E03ED0B4E03CD0670F781FAE
:100A1000891F9A1FA11D680F791F8A1F911DA11D93
:100A20006A0F711D811D911DA11D20D009F46894CC
:100A30003F912AE0269F11243019305D3193DEF674
:100A4000CF010895462F4770405D4193B3E00FD02A
:100A5000C9F7F6CF462F4F70405D4A3318F0495D15
:100A600031FD4052419302D0A9F7EACFB4E0A695F8
:100A70009795879577956795BA95C9F7009761051A
:100A8000710508959B01AC010A2E06945795479570
:100A900037952795BA95C9F7620F731F841F951F65
:100AA000A01D08952F923F924F925F926F927F9276
:100AB0008F929F92AF92BF92CF92DF92EF92FF926E
:100AC0000F931F93CF93DF93CDB7DEB7CA1BDB0B1A
:100AD0000FB6F894DEBF0FBECDBF09942A883988BF
:100AE00048885F846E847D848C849B84AA84B984C6
:100AF000C884DF80EE80FD800C811B81AA81B981D2
:100B0000CE0FD11D0FB6F894DEBF0FBECDBFED01E5
:060B10000895F894FFCFE8
:100B160045453130392046616C6C20323032300028
:100B2600546865726D6F737461740054656D703AC4
:100B360020004C6F773D25336420486967683F2560
:100B46003364004C6F773F25336420486967683DFE
:040B560025336400DF
:00000001FF
