:100000000C9434000C9451000C9451000C94D500C5
:100010000C9451000C9451000C9451000C9451001C
:100020000C9451000C9451000C9451000C9451000C
:100030000C9451000C9451000C9451000C945100FC
:100040000C9451000C9451000C9451000C945100EC
:100050000C9451000C9451000C9451000C945100DC
:100060000C9451000C94510011241FBECFEFD8E026
:10007000DEBFCDBF11E0A0E0B1E0E2ECFEE002C0E7
:1000800005900D92AA34B107D9F721E0AAE4B1E0B6
:1000900001C01D92A035B207E1F70E945F020C94E7
:1000A0005F070C9400009BB19F709BB99BB1807F50
:1000B000892B8BB9299A299A29980895CF93C82F0B
:1000C00028980E9453008C2F8295807F0E945300B5
:1000D0008FE39FE10197F1F700C00000CF910895F1
:1000E000811104C080E8860F0C945E0080ECFBCF89
:1000F0008AB1806F8AB984B1836084B98FE59AEE42
:100100000197F1F700C0000080E30E9453008FE1E7
:100110009EE40197F1F700C0000080E30E945300C5
:100120008FED91E00197F1F700C0000080E30E949D
:10013000530080E20E9453008FE39FE10197F1F7A3
:1001400000C0000088E20E945E008FE00C945E0018
:10015000CF93C82F289A0E9453008C2F8295807FBE
:100160000E9453008FE39FE10197F1F700C0000068
:10017000CF910895CF93DF93EC018991811103C052
:10018000DF91CF9108950E94A800F7CF85B18861D3
:1001900085B9E8E6F0E0808181608083EBE6F0E0FD
:1001A000808188618083789408951F920F920FB6A2
:1001B0000F9211248F939F9383B1887080934F0186
:1001C00083B1807180934A0180914B0181112CC0D1
:1001D00080914F01882341F081E080934C01809110
:1001E0004E018F5F80934E0180914A01882341F038
:1001F00082E080934C0180914E01815080934E01AA
:1002000090914C0180914B01981739F081E08093D7
:100210004D0180914C0180934B019F918F910F90E4
:100220000FBE0F901F90189580914B01813099F46B
:1002300080914F01811107C010924C0180914E01B5
:10024000815080934E0180914A018823C9F283E056
:1002500080934C0116C080914B018230B1F48091A3
:100260004F01882341F083E080934C0180914E013F
:10027000815080934E0180914A018111C1CF10922B
:100280004C0180914E018F5FB9CF80914A0181115D
:1002900008C081E080934C0180914E018150809391
:1002A0004E0180914F018111ABCF82E0D1CF3B9ABB
:1002B0008FE599E00197F1F700C000003B988BE0D3
:1002C00091E00197F1F700C0000033990AC0339B19
:1002D000FECF87EC90E00197F1F700C0000081E0CD
:1002E000089580E008953B9A8AE08A95F1F700C06E
:1002F0003B988FEE90E00197F1F700C00000089561
:100300003B9A8FEE90E00197F1F700C000003B9818
:100310009AE09A95F1F700C00895CF93DF93D82F14
:10032000C8E0D0FF08C00E947301D695C150C9F73C
:10033000DF91CF9108950E948001F7CF0E9457016D
:10034000882331F08CEC0E948D0184E40C948D01A3
:1003500008953B9A8AE08A95F1F700C03B98E5E35F
:10036000EA95F1F7000086B1E7ECF0E03197F1F79C
:1003700000C00000887008951F93CF93DF93D8E0EA
:1003800011E0C0E00E94A9018111C12B110FD150D1
:10039000C9F78C2FDF91CF911F910895EF92FF92B3
:1003A0000F931F93CF93DF93CDB7DEB729970FB687
:1003B000F894DEBF0FBECDBF3B9843980E94570113
:1003C00081110EC080E029960FB6F894DEBF0FBEF3
:1003D000CDBFDF91CF911F910F91FF90EF900895C6
:1003E0008CEC0E948D018EEB0E948D018E010F5FBF
:1003F0001F4F7E012AE0E20EF11C0E94BC01F801B1
:1004000081938F01EE15FF05C1F70E9457018823E4
:10041000C9F28CEC0E948D018EE40E948D018B81CB
:100420000E948D018C810E948D018FE70E948D01B9
:100430008FE891E00197F1F700C000000E9457019A
:10044000882309F4BFCF8CEC0E948D0188E40E94C0
:100450008D019FEFE9EFF0E09150E040F040E1F7CF
:1004600000C0000081E0AFCFCF93DF93EC010E948A
:10047000A901882301F10E9457018823D1F08CEC57
:100480000E948D018EEB0E948D010E94BC01888329
:100490000E94BC0189830E94BC010E94BC010E9491
:1004A000BC010E94BC010E94BC010E94BC010E94D0
:1004B000BC0181E001C080E0DF91CF9108952F92CF
:1004C0003F924F925F926F927F928F929F92AF92E4
:1004D000BF92CF92DF92EF92FF920F931F93CF9331
:1004E000DF93CDB7DEB760970FB6F894DEBF0FBECF
:1004F000CDBF10924D010E94780081E00E945E0005
:100500000E94C6000E94CE01882309F496C184E6A9
:1005100090E00E940E07582E88EC90E00E940E0793
:10052000482E88ED850D8D3320F488ED840D8D33B4
:1005300070F068E484E690E00E9416076CE488ECB2
:1005400090E00E9416077CE4472EE8E45E2E40927D
:100550004E0160E080E00E94700080E091E00E9427
:10056000BA0063E081E00E94700080E191E00E94A7
:10057000BA002FEF43ED80E3215040408040E1F787
:1005800000C0000081E00E945E0083B1887080930B
:100590004F0183B1807180934A0180914A0181119A
:1005A0000AC180914F01811106C110924B018091C7
:1005B0004B0180934C0187B187B988B1866088B9B7
:1005C0008AB18C608AB960E081E00E9470001F925D
:1005D0004F921F925F928BE191E09F938F931F92B6
:1005E00084E18F938E010F5F1F4F1F930F930E9423
:1005F0006004C8010E94BA000E949E010FB6F894E0
:10060000DEBF0FBECDBF91E0988B21E02F87222463
:1006100023943BE1A32E31E0B32E44E1342E5CE27F
:10062000852E51E0952E6DE3662E61E0762E809149
:100630004D01882381F180914E01883208F0D3C0AA
:1006400048E240934E012110D7C050904E0145140E
:1006500018F440924E01542C652D84E690E00E94DF
:10066000160760E081E00E9470001F924F921F9277
:100670005F929F928F921F923F921F930F930E94BF
:100680006004C8010E94BA000FB6F894DEBF0FBE26
:10069000CDBF10924D01CE010D960E9434028823E9
:1006A00091F12D853E8549E0429FC001439F900D09
:1006B000112497FD079623E0959587952A95E1F7F4
:1006C000805C9E4F6AE070E00E9438046B01F82E57
:1006D000E92E60E080E00E947000EF92FF92DF92CE
:1006E000CF927F926F921F923F921F930F930E941F
:1006F0006004C8010E94BA000E949E010FB6F894DF
:10070000DEBF0FBECDBFE42CF12C9F859923E9F00D
:1007100031991BC060E081E00E947000FF924F920F
:100720001F925F929F928F921F923F921F930F93FF
:100730000E946004C8010E94BA0050924E010FB698
:10074000F894DEBF0FBECDBF212C98899923F1F01C
:1007500032991CC060E081E00E947000FF92EF922D
:100760001F925F92BF92AF921F923F921F930F937F
:100770000E946004C8010E94BA0040924E010FB668
:10078000F894DEBF0FBECDBF2224239486B18270C1
:100790008F8786B18470888BEC14FD040CF043C005
:1007A0005B9A9FEF29EF40E0915020404040E1F7F5
:1007B00000C000003CCF80914A01811108C08091A7
:1007C0004F01882321F081E080934B01F0CE80918E
:1007D0004A01882331F080914F01811102C082E0EB
:1007E000F3CF83E0F1CF80914E01853608F42BCF13
:1007F00084E680934E0127CF40904E01451418F4B3
:1008000050924E01452C642D88EC90E00E94160712
:1008100060E081E00E9470001F924F921F925F92F1
:10082000BF92AF9228CF5C141D0419F014F05A9AAD
:10083000B8CF8BB1837F8BB9B4CF81E090E0609665
:100840000FB6F894DEBF0FBECDBFDF91CF911F91E1
:100850000F91FF90EF90DF90CF90BF90AF909F905F
:100860008F907F906F905F904F903F902F90089562
:1008700097FB072E16F4009407D077FD09D00E944D
:100880004C0407FC05D03EF4909581959F4F089548
:10089000709561957F4F0895AA1BBB1B51E107C05E
:1008A000AA1FBB1FA617B70710F0A61BB70B881F00
:1008B000991F5A95A9F780959095BC01CD0108958F
:1008C000AEE0B0E0E6E6F4E00C9436070D891E8950
:1008D0008F89988D26E02C831A83098397FF02C0A5
:1008E00080E090E801979E838D83AE01455E5F4F67
:1008F000698D7A8DCE0101960E9490044D815E81B2
:1009000057FD0AC02F813885421753070CF49A010E
:10091000020F131FF80110822E96E4E00C94520788
:10092000ABE0B0E0E6E9F4E00C9428077C013B0181
:100930008A01FC0117821682838181FFC8C1CE0122
:1009400001965C01F7019381F30193FD859193FF7B
:1009500081913F01882309F453C1853239F493FD15
:10096000859193FF81913F01853229F4B70190E091
:100970000E948006E7CF912C212C312CFFE1F3154A
:1009800038F08B3211F190F4803209F1833229F181
:1009900037FC3CC020ED280F2A3050F536FE20C031
:1009A0008AE0989E200D1124922E06C08D3291F07F
:1009B000803371F7689430F8F30193FD859193FFCC
:1009C00081913F018111DACF21C0689431F8689498
:1009D00032F8F2CF689433F8EFCF689434F8ECCF64
:1009E000EAE02E9E200D1124222E689435F8E4CFE3
:1009F0008E3229F436FC04C1689436F8DDCF8C368B
:100A000019F4689437F8D8CF8836B1F2982F9F7DC3
:100A100095549330E0F08336A1F18337C1F18335EB
:100A200009F063C02801F2E04F0E511CF801C080AC
:100A3000D180692D70E036FC02C06FEF7FEFC601F8
:100A40000E946A064C01689437F882010AC00C5F64
:100A50001F4FFFE3F98388248394912C6501E89468
:100A600037F833FE2DC0522C8114910471F55520B6
:100A700009F468CFB70180E290E00E9480065A94A2
:100A8000F6CFF801808189830E5F1F4FE4CF2801E4
:100A9000F2E04F0E511CF801C080D180692D70E04A
:100AA00036FC02C06FEF7FEFC6010E9475064C0155
:100AB0008201D5CFB70180E290E00E9480062A949F
:100AC0002814190409F0B0F7CECFF60137FC859150
:100AD00037FE81916F01B70190E00E9480065110AE
:100AE0005A94F1E08F1A9108BFCF843619F08936F5
:100AF00009F077C0F80137FE6BC060817181828197
:100B000093810C5F1F4FF32DFF763F2E97FF09C097
:100B100090958095709561957F4F8F4F9F4F68940A
:100B200037F82AE030E0A5010E94B006C82ECA18A6
:100B30008C2C432C36FE0CC0E89440F8C91440F4C9
:100B400034FE05C032FC03C0F32DFE7E4F2E892CEF
:100B500044FE95C0FE01EC0DF11D8081803309F04B
:100B600087C0242D297E422E842D8870582E43FC68
:100B700095C040FE8FC09C2C821418F42C0C922C33
:100B8000981844FE91C0B70180E390E00E9480066F
:100B900042FE09C088E790E041FE02C088E590E08F
:100BA000B7010E948006C91408F48AC0CA94D12CE7
:100BB0009FEFC91AD90ACA0CDB1CF60182916F019A
:100BC000B70190E00E948006AC14BD04B1F74FCF8E
:100BD00060817181072E000C880B990B0E5F1F4FEF
:100BE00092CFD32CE894D4F82AE030E0853739F15D
:100BF000232D297FD22E8F3601F148F48835A9F0B4
:100C0000F701868197812B96E2E10C9444078037A7
:100C100049F08837A9F7D4FE02C06894D2F820E1E1
:100C200030E00DC06894D4F8F6CF34FE03C0822FB4
:100C30008660D82E20E132E002C028E030E0F801E2
:100C4000D7FE0FC060817181828193810C5F1F4F3D
:100C5000A5010E94B006C82ECA183D2CE89437F8AA
:100C600067CF6081718190E080E00E5F1F4FF0CF11
:100C700042FC02C0839478CF8394839475CF842DF3
:100C8000867809F471CFF6CFB70180E290E00E9438
:100C9000800683948214C0F3512C73CF522C5818C1
:100CA000821408F46ECFF8CF842D867809F47BCFB8
:100CB0008BE241FE80E247FC8DE2B70190E071CF0C
:100CC000B70180E390E00E9480069A946CCF8FEF8A
:100CD0009FEF99CFFC010590615070400110D8F74B
:100CE000809590958E0F9F1F0895FC016150704074
:100CF00001900110D8F7809590958E0F9F1F089551
:100D00000F931F93CF93DF93182F092FEB018B8144
:100D100081FD09C01FEF0FEF812F902FDF91CF9141
:100D20001F910F91089582FF14C02E813F818C8105
:100D30009D81281739073CF4E881F981CF0101969C
:100D40009983888310838E819F8101969F838E83F0
:100D5000E3CFE885F985812F0995892BA1F3DACFB7
:100D6000FA01AA27283051F1203181F1E8946F93DC
:100D70006E7F6E5F7F4F8F4F9F4FAF4FB1E03ED082
:100D8000B4E03CD0670F781F891F9A1FA11D680F20
:100D9000791F8A1F911DA11D6A0F711D811D911D53
:100DA000A11D20D009F468943F912AE0269F1124C8
:100DB0003019305D3193DEF6CF010895462F47702C
:100DC000405D4193B3E00FD0C9F7F6CF462F4F7087
:100DD000405D4A3318F0495D31FD4052419302D0E5
:100DE000A9F7EACFB4E0A69597958795779567958B
:100DF000BA95C9F700976105710508959B01AC018B
:100E00000A2E06945795479537952795BA95C9F7B1
:100E1000620F731F841F951FA01D0895F999FECFBF
:100E200092BD81BDF89A992780B50895262FF9992A
:100E3000FECF92BD81BDF89A019700B4021639F039
:100E40001FBA20BD0FB6F894FA9AF99A0FBE08950A
:100E50002F923F924F925F926F927F928F929F92CA
:100E6000AF92BF92CF92DF92EF92FF920F931F93B8
:100E7000CF93DF93CDB7DEB7CA1BDB0B0FB6F89469
:100E8000DEBF0FBECDBF09942A88398848885F84A9
:100E90006E847D848C849B84AA84B984C884DF801A
:100EA000EE80FD800C811B81AA81B981CE0FD11DFE
:100EB0000FB6F894DEBF0FBECDBFED010895F894D4
:020EC000FFCF62
:100EC20045453130392046616C6C20323032300079
:100ED200546865726D6F73746174004C6F773D2551
:100EE200336420486967683F253364004C6F773F5D
:100EF20025336420486967683D2533640054656D75
:0A0F0200703A2025642E25640000DB
:00000001FF
