:100000000C9434000C9451000C9451000C94510049
:100010000C9485000C9451000C9451000C945100E8
:100020000C9451000C9451000C9451000C9451000C
:100030000C9451000C9451000C9451000C945100FC
:100040000C9451000C9451000C9451000C945100EC
:100050000C9451000C9451000C9451000C945100DC
:100060000C9451000C94510011241FBECFEFD8E026
:10007000DEBFCDBF11E0A0E0B1E0E4E3FCE002C0F0
:1000800005900D92A232B107D9F721E0A2E2B1E0CA
:1000900001C01D92A932B207E1F70E94DA010C9467
:1000A00018060C94000005966AE070E00E94CA02EF
:1000B0006150710908F4089585E38A95F1F700000D
:1000C000F7CF0F931F93CF93DF93EC019C0150E088
:1000D00040E060E472E48FE090E00E94DE0289017B
:1000E0009A013695279517950795219728F4DF9162
:1000F000CF911F910F9108952C9AC8010E9453002F
:100100002C98C8010E945300F0CF1F920F920FB697
:100110000F9211248F939F9386B182708093280150
:1001200086B180728093220180912301811134C0B5
:1001300080912801882361F081E0809324018091DF
:100140002601909127010196909327018093260123
:1001500080912201882361F082E0809324018091C4
:100160002601909127010197909327018093260102
:100170009091240180912301981739F081E08093B8
:10018000250180912401809323019F918F910F90ED
:100190000FBE0F901F901895809123018130B9F404
:1001A0008091280181110BC01092240180912601B9
:1001B00090912701019790932701809326018091C8
:1001C00022018823A9F283E0809324011AC0809140
:1001D00023018230E1F480912801882361F083E0DB
:1001E000809324018091260190912701019790939B
:1001F000270180932601809122018111B9CF1092AD
:10020000240180912601909127010196ADCF809124
:10021000220181110CC081E080932401809126018C
:100220009091270101979093270180932601809157
:10023000280181119DCF82E0C7CF9BB19F709BB9F0
:100240009BB1807F892B8BB9299A299A2998089587
:10025000CF93C82F28980E941D018C2F8295807FF4
:100260000E941D018FE39FE10197F1F700C000009C
:10027000CF910895811104C080E8860F0C94280165
:1002800080ECFBCF8AB1806F8AB984B1836084B976
:100290008FE59AEE0197F1F700C0000080E30E941D
:1002A0001D018FE19EE40197F1F700C0000080E39B
:1002B0000E941D018FED91E00197F1F700C0000051
:1002C00080E30E941D0180E20E941D018FE39FE1F7
:1002D0000197F1F700C0000088E20E9428018FE03A
:1002E0000C942801CF93C82F289A0E941D018C2FAF
:1002F0008295807F0E941D018FE39FE10197F1F7B6
:1003000000C00000CF910895CF93DF93EC01899155
:10031000811103C0DF91CF9108950E947201F7CF40
:10032000ECE7F0E080818F7B808380818064808334
:10033000808180628083EAE7F0E08081876080834B
:10034000808180688083089590917C00907F909355
:100350007C00811111C080917C00807F80937C00A3
:1003600080917A00806480937A0080917A0086FD83
:10037000FCCF809179000895813021F480917C0038
:100380008160ECCF823021F480917C008260E6CFE6
:10039000833021F480917C008360E0CF843021F4AD
:1003A00080917C008460DACF8530D1F680917C002A
:1003B0008560D4CFCF93DF93CDB7DEB72C970FB640
:1003C000F894DEBF0FBECDBF109227011092260118
:1003D00010922501009100011091010188B1826203
:1003E00088B98091680082608093680080916C0079
:1003F000826280936C0078940E94420181E00E94A6
:10040000280164E080E00E943A0180E191E00E94CE
:10041000840164E081E00E943A0189E191E00E9458
:1004200084012FEF33ED80E3215030408040E1F72D
:1004300000C0000081E00E94280186B18270809394
:10044000280186B18072809322018091220181115E
:100450005FC08091280181115BC0109223018091BF
:100460002301809324018FE1E82E81E0F82E96E0AD
:10047000B92E9E012F5F3F4F69018091250188238E
:10048000E1F31092250181E00E94280160E080E004
:100490000E943A0180912601909127019F938F93AA
:1004A000FF92EF921F92BF92DF92CF920E9433038E
:1004B000C6010E94840180912601909127018770D6
:1004C00099270FB6F894DEBF0FBECDBF892BA9F6D2
:1004D000809126019091270197FF03C09195819506
:1004E00091098F739927009721F4009100011091D1
:1004F00001018830910521F500910201109103015D
:100500008033910561F500910C0110910D0135C00A
:1005100080912201811108C080912801882321F057
:1005200081E0809323019BCF80912201882331F0C9
:1005300080912801811102C082E0F3CF83E0F1CFE6
:100540008031910529F40091040110910501D8CF63
:100550008831910559F40091060110910701C8975F
:1005600061F400910E0110910F0107C080329105D6
:1005700041F40091080110910901C8010E94610035
:100580007CCF8832910509F0BBCF00910A01109110
:100590000B01F3CF97FB072E16F4009407D077FDDD
:1005A00009D00E94FD0207FC05D03EF4909581958C
:1005B0009F4F0895709561957F4F0895052E97FB85
:1005C0001EF400940E94F50257FD07D00E9411030B
:1005D00007FC03D04EF40C94F502509540953095ED
:1005E00021953F4F4F4F5F4F08959095809570959F
:1005F00061957F4F8F4F9F4F0895AA1BBB1B51E101
:1006000007C0AA1FBB1FA617B70710F0A61BB70B82
:10061000881F991F5A95A9F780959095BC01CD0127
:100620000895A1E21A2EAA1BBB1BFD010DC0AA1F33
:10063000BB1FEE1FFF1FA217B307E407F50720F04B
:10064000A21BB30BE40BF50B661F771F881F991FC6
:100650001A9469F760957095809590959B01AC010F
:10066000BD01CF010895AEE0B0E0E9E3F3E00C9402
:10067000EF050D891E898F89988D26E02C831A83BA
:10068000098397FF02C080E090E801979E838D83E5
:10069000AE01455E5F4F698D7A8DCE0101960E9455
:1006A00063034D815E8157FD0AC02F813885421753
:1006B00053070CF49A01020F131FF80110822E96B3
:1006C000E4E00C940B06ABE0B0E0E9E6F3E00C9458
:1006D000E1057C013B018A01FC01178216828381BE
:1006E00081FFC8C1CE0101965C01F7019381F3013E
:1006F00093FD859193FF81913F01882309F453C1B4
:10070000853239F493FD859193FF81913F018532C4
:1007100029F4B70190E00E945305E7CF912C212CDA
:10072000312CFFE1F31538F08B3211F190F4803267
:1007300009F1833229F137FC3CC020ED280F2A3023
:1007400050F536FE20C08AE0989E200D1124922E8E
:1007500006C08D3291F0803371F7689430F8F30160
:1007600093FD859193FF81913F018111DACF21C0E3
:10077000689431F8689432F8F2CF689433F8EFCF88
:10078000689434F8ECCFEAE02E9E200D1124222E3E
:10079000689435F8E4CF8E3229F436FC04C16894AD
:1007A00036F8DDCF8C3619F4689437F8D8CF883610
:1007B000B1F2982F9F7D95549330E0F08336A1F1EC
:1007C0008337C1F1833509F063C02801F2E04F0E91
:1007D000511CF801C080D180692D70E036FC02C048
:1007E0006FEF7FEFC6010E943D054C01689437F81A
:1007F00082010AC00C5F1F4FFFE3F98388248394B2
:10080000912C6501E89437F833FE2DC0522C8114E9
:10081000910471F5552009F468CFB70180E290E0AA
:100820000E9453055A94F6CFF801808189830E5FA8
:100830001F4FE4CF2801F2E04F0E511CF801C08099
:10084000D180692D70E036FC02C06FEF7FEFC601EA
:100850000E9448054C018201D5CFB70180E290E0AB
:100860000E9453052A942814190409F0B0F7CECF3A
:10087000F60137FC859137FE81916F01B70190E059
:100880000E94530551105A94F1E08F1A9108BFCF7E
:10089000843619F0893609F077C0F80137FE6BC04D
:1008A00060817181828193810C5F1F4FF32DFF76F0
:1008B0003F2E97FF09C090958095709561957F4F69
:1008C0008F4F9F4F689437F82AE030E0A5010E94CF
:1008D0008305C82ECA188C2C432C36FE0CC0E89415
:1008E00040F8C91440F434FE05C032FC03C0F32DB7
:1008F000FE7E4F2E892C44FE95C0FE01EC0DF11DAD
:100900008081803309F087C0242D297E422E842DDA
:100910008870582E43FC95C040FE8FC09C2C8214DA
:1009200018F42C0C922C981844FE91C0B70180E367
:1009300090E00E94530542FE09C088E790E041FE26
:1009400002C088E590E0B7010E945305C91408F47D
:100950008AC0CA94D12C9FEFC91AD90ACA0CDB1CD1
:10096000F60182916F01B70190E00E945305AC142B
:10097000BD04B1F74FCF60817181072E000C880B49
:10098000990B0E5F1F4F92CFD32CE894D4F82AE036
:1009900030E0853739F1232D297FD22E8F3601F1B2
:1009A00048F48835A9F0F701868197812B96E2E11A
:1009B0000C94FD05803749F08837A9F7D4FE02C0B2
:1009C0006894D2F820E130E00DC06894D4F8F6CFF6
:1009D00034FE03C0822F8660D82E20E132E002C0B0
:1009E00028E030E0F801D7FE0FC06081718182817C
:1009F00093810C5F1F4FA5010E948305C82ECA1862
:100A00003D2CE89437F867CF6081718190E080E0F9
:100A10000E5F1F4FF0CF42FC02C0839478CF8394C7
:100A2000839475CF842D867809F471CFF6CFB70102
:100A300080E290E00E94530583948214C0F3512C0D
:100A400073CF522C5818821408F46ECFF8CF842D2F
:100A5000867809F47BCF8BE241FE80E247FC8DE291
:100A6000B70190E071CFB70180E390E00E94530599
:100A70009A946CCF8FEF9FEF99CFFC010590615056
:100A800070400110D8F7809590958E0F9F1F0895A4
:100A9000FC016150704001900110D8F7809590954D
:100AA0008E0F9F1F08950F931F93CF93DF93182FDF
:100AB000092FEB018B8181FD09C01FEF0FEF812F03
:100AC000902FDF91CF911F910F91089582FF14C055
:100AD0002E813F818C819D81281739073CF4E88164
:100AE000F981CF0101969983888310838E819F813C
:100AF00001969F838E83E3CFE885F985812F099541
:100B0000892BA1F3DACFFA01AA27283051F120313D
:100B100081F1E8946F936E7F6E5F7F4F8F4F9F4F91
:100B2000AF4FB1E03ED0B4E03CD0670F781F891FD3
:100B30009A1FA11D680F791F8A1F911DA11D6A0FA1
:100B4000711D811D911DA11D20D009F468943F9154
:100B50002AE0269F11243019305D3193DEF6CF0153
:100B60000895462F4770405D4193B3E00FD0C9F719
:100B7000F6CF462F4F70405D4A3318F0495D31FD86
:100B80004052419302D0A9F7EACFB4E0A6959795D9
:100B9000879577956795BA95C9F7009761057105AF
:100BA00008959B01AC010A2E0694579547953795F9
:100BB0002795BA95C9F7620F731F841F951FA01D53
:100BC00008952F923F924F925F926F927F928F92F1
:100BD0009F92AF92BF92CF92DF92EF92FF920F93CC
:100BE0001F93CF93DF93CDB7DEB7CA1BDB0B0FB6D6
:100BF000F894DEBF0FBECDBF09942A883988488893
:100C00005F846E847D848C849B84AA84B984C88428
:100C1000DF80EE80FD800C811B81AA81B981CE0F1F
:100C2000D11D0FB6F894DEBF0FBECDBFED01089504
:040C3000F894FFCF66
:100C3400060126014A015D018801B801EE010B029B
:100C440050656E656C6F7065004C616220370025DD
:020C540064003A
:00000001FF
