:100000000C9434000C9451000C9451000C947C011D
:100010000C9451000C9451000C9451000C94A001CC
:100020000C9451000C9451000C9451000C9451000C
:100030000C9451000C9451000C9451000C945100FC
:100040000C9451000C9451000C9475000C945100C8
:100050000C9451000C9451000C9451000C945100DC
:100060000C9451000C94510011241FBECFEFD8E026
:10007000DEBFCDBF11E0A0E0B1E0E6E8F5E002C0F0
:1000800005900D92A03EB107D9F722E0A0EEB1E0B5
:1000900001C01D92AA30B207E1F70E9420020C9421
:1000A000C1020C9400009093C5008093C400E1EC61
:1000B000F0E080818861808386E08093C200539A5B
:1000C0005B9808959091C00095FFFCCF8093C60087
:1000D0000895CF93DF93EC018991811103C0DF91E3
:1000E000CF9108950E946200F7CF1F920F920FB632
:1000F0000F9211248F939F93EF93FF938091C600EB
:10010000E091E001F091E101E750FE4F80838091A2
:10011000E0019091E10101969093E1018093E0016B
:100120008091E0019091E101409751F41092E1013A
:100130001092E00181E090E09093E3018093E2016E
:10014000FF91EF919F918F910F900FBE0F901F9095
:1001500018959BB19F709BB99BB1807F892B8BB900
:10016000299A299A29980895CF93C82F28980E94F0
:10017000A9008C2F8295807F0E94A9008FE39FE1C8
:100180000197F1F700C00000CF910895811104C0DC
:1001900080E8860F0C94B40080ECFBCF8AB1806FAE
:1001A0008AB984B1836084B98FE59AEE0197F1F73B
:1001B00000C0000080E30E94A9008FE19EE4019747
:1001C000F1F700C0000080E30E94A9008FED91E0EC
:1001D0000197F1F700C0000080E30E94A90080E2CF
:1001E0000E94A9008FE39FE10197F1F700C0000092
:1001F00088E20E94B4008FE00C94B400CF93C82F23
:10020000289A0E94A9008C2F8295807F0E94A900C5
:100210008FE39FE10197F1F700C00000CF910895AF
:10022000CF93DF93EC018991811103C0DF91CF91CE
:1002300008950E94FE00F7CFECE7F0E080818F7B0D
:100240008083808180648083808180628083EAE70C
:10025000F0E080818760808380818068808308955A
:1002600090917C00907F90937C00811111C08091CF
:100270007C00807F80937C0080917A0080648093F2
:100280007A0080917A0086FDFCCF809179000895F4
:10029000813021F480917C008160ECCF823021F4A8
:1002A00080917C008260E6CF833021F480917C00D5
:1002B0008360E0CF843021F480917C008460DACFC9
:1002C0008530D1F680917C008560D4CFE0EBF0E002
:1002D0008081826080831092F70123981092E5015B
:1002E000EBE6F0E0808188608083E8E6F0E08081E2
:1002F00081608083789408951F920F920FB60F92B9
:1003000011248F931B9916C080916B00877F809377
:100310006B001092F70187E68093B3008091700024
:100320008260809370001092B2008091B100826070
:100330008093B1008F910F900FBE0F901F90189572
:100340001F920F920FB60F9211242F933F934F934A
:100350005F936F937F938F939F93AF93BF93EF932D
:10036000FF938091F701811128C01B9915C080E48B
:100370008093F70181E08093F8011092E40180916D
:10038000B100887F8093B1008FEC8093B30080919F
:10039000B10082608093B100FF91EF91BF91AF9166
:1003A0009F918F917F916F915F914F913F912F918D
:1003B0000F900FBE0F901F9018958091F70186FF48
:1003C000EBCF8091F801882359F01B9B05C09091D9
:1003D000E401982B9093E401880F8093F801DCCF1F
:1003E0008091B100887F8093B1001B9B23C08091D6
:1003F000E501E82FF0E0EA51FE4F9091E40190838F
:100400008F5F8093E501E82FF0E0EA51FE4F108204
:10041000803151F460E081E00E94C60086EE91E0F8
:100420000E9410011092E50180916B00886080931A
:100430006B00B2CF8091F70180628093F701F4CF17
:100440000E94CE0081E00E94B4000E941C0187E659
:1004500090E00E9453000E9466018091C100806874
:100460008093C100789464E080E00E94C60086E139
:1004700091E00E94100164E081E00E94C6008FE1DB
:1004800091E00E9410012FEF37EA81E621503040C1
:100490008040E1F700C0000081E00E94B400D0E09D
:1004A000C0E080E00E9430019FEF22E537E09150EC
:1004B00020403040E1F700C0000093ED980F9531E7
:1004C00068F5219710F4CAE0D0E060E080E00E9477
:1004D000C600FE01EE0FFF1FE050FF4F80819181AB
:1004E0000E9410019FEF22E537E0915020403040FC
:1004F000E1F700C000008091E2019091E301892BB7
:1005000081F260E081E00E94C60089EF91E00E94E4
:1005100010011092E3011092E201C3CF91EA980F0B
:100520009031D8F42196CB30D10511F4D0E0C0E061
:1005300060E080E00E94C600FE01EE0FFF1FE05069
:10054000FF4F808191810E9410018FEF92E527E09B
:10055000815090402040E1F7CCCF885C803158F644
:10056000FE01EE0FFF1FE050FF4F808191810E943E
:1005700069003FEF82E597E0315080409040E1F71D
:06058000B8CFF894FFCF94
:10058600250136014701580169017A018B019C0159
:10059600AD01BE01CF0150656E656C6F7065004C94
:1005A600616220380048656C6C6F20202020202076
:1005B600202020202000486F772061726520796F07
:1005C600753F20202020007768617427732075709E
:1005D6003F2020202020200053656520796F75205C
:1005E600736F6F6E2E2020200054616C6B20746F29
:1005F60020796F7520736F6F6E005768657265207E
:1006060061726520796F753F2020004F6E206D79ED
:10061600207761792120202020202000476F6F64F9
:10062600206D6F726E696E6721202020004861760A
:1006360065206120676F6F642064617920005365CF
:100646006520796F7520696E20636C617373004154
:10065600726520796F7520636F6D696E673F200044
:00000001FF
