:100000000C9434000C9449000C9449000C94490061
:100010000C9449000C9449000C9449000C9449003C
:100020000C9449000C9449000C9449000C9449002C
:100030000C9449000C9449000C9449000C9449001C
:100040000C9449000C9449000C9449000C9449000C
:100050000C9449000C9449000C9449000C944900FC
:100060000C9449000C94490011241FBECFEFD8E036
:10007000DEBFCDBF11E0A0E0B1E0EAE5F9E002C0EB
:1000800005900D92A035B107D9F70E94BE000C94DF
:10009000AB040C9400009BB19F709BB99BB1807F17
:1000A000892B8BB9299A299A29980895CF93C82F1B
:1000B00028980E944B008C2F8295807F0E944B00D5
:1000C0008FE39FE10197F1F700C00000CF91089501
:1000D000811104C080E8860F0C94560080ECFBCFA1
:1000E0008AB1806F8AB984B1836084B98FE59AEE52
:1000F0000197F1F700C0000080E30E944B008FE100
:100100009EE40197F1F700C0000080E30E944B00DD
:100110008FED91E00197F1F700C0000080E30E94AD
:100120004B0080E20E944B008FE39FE10197F1F7C3
:1001300000C0000088E20E9456008FE00C94560038
:10014000CF93C82F289A0E944B008C2F8295807FD6
:100150000E944B008FE39FE10197F1F700C0000080
:10016000CF910895CF93DF93EC018991811103C062
:10017000DF91CF9108950E94A000F7CFCF93DF9336
:10018000CDB7DEB7C654D1090FB6F894DEBF0FBEA7
:10019000CDBF0E94700081E00E94560064E080E0C4
:1001A0000E94680081E291E00E94B2001F9283E603
:1001B0008F931F928DE18F931F928CE08F938AE231
:1001C00091E09F938F931F928AE08F938E01035C3F
:1001D0001F4F1F930F930E94C60164E081E00E94AD
:1001E0006800C8010E94B2002FEF83ED90E3215018
:1001F00080409040E1F700C0000081E00E9456007E
:1002000080E091E09F938F9389E391E09F938F9398
:100210001F92FEE1FF2EFF920E5111091F930F93C3
:100220000E94C6018EE091E09F938F9384E491E059
:100230009F938F931F92FF92CE0101967C019F9313
:100240008F930E94C60160E080E00E946800C801B0
:100250000E94B20060E081E00E946800C7010E9435
:10026000B20087B187B988B1846188B90FB6F894B4
:10027000DEBF0FBECDBFAEE0CA2EA1E0DA2EB0E0E9
:10028000EB2EB1E0FB2E10E000E086B126B120712C
:1002900082FD15C0329BFECF81E090E021114CC061
:1002A000349BFECF21E030E00115110509F049C073
:1002B0008EE1E82E81E0F82E01E010E048C090E0E9
:1002C00080E0ECCF0230110551F4892B09F43FC0D6
:1002D0009BE1E92E91E0F92E03E010E038C00330F5
:1002E000110569F4232B99F17CE0C72E71E0D72E1C
:1002F000E5E1EE2EE1E0FE2E04E010E028C004303F
:10030000110529F5892B69F4232B09F110E000E090
:1003100033E0C32E31E0D32E40E0E42E41E0F42E52
:1003200016C053E0C52E51E0D52E60E0E62E61E008
:10033000F62E10E000E00BC030E020E001151105C2
:1003400031F00130110509F0BDCF892BC1F468E00F
:1003500080E00E946800C7010E94B20068E081E06E
:100360000E946800C6010E94B2009FEF29EF80E062
:10037000915020408040E1F700C0000086CF28E186
:10038000E22E21E0F22E02E010E0E1CFAEE0B0E09C
:10039000ECECF1E00C9482040D891E898F89988D14
:1003A00026E02C831A83098397FF02C080E090E83F
:1003B00001979E838D83AE01455E5F4F698D7A8D77
:1003C000CE0101960E94F6014D815E8157FD0AC063
:1003D0002F813885421753070CF49A01020F131F1F
:1003E000F80110822E96E4E00C949E04ABE0B0E09D
:1003F000ECEFF1E00C9474047C013B018A01FC01F8
:1004000017821682838181FFC8C1CE0101965C01EB
:10041000F7019381F30193FD859193FF81913F0152
:10042000882309F453C1853239F493FD859193FFF4
:1004300081913F01853229F4B70190E00E94E603E3
:10044000E7CF912C212C312CFFE1F31538F08B32C2
:1004500011F190F4803209F1833229F137FC3CC06C
:1004600020ED280F2A3050F536FE20C08AE0989EF5
:10047000200D1124922E06C08D3291F0803371F739
:10048000689430F8F30193FD859193FF81913F01CA
:100490008111DACF21C0689431F8689432F8F2CF34
:1004A000689433F8EFCF689434F8ECCFEAE02E9EEE
:1004B000200D1124222E689435F8E4CF8E3229F4D1
:1004C00036FC04C1689436F8DDCF8C3619F4689494
:1004D00037F8D8CF8836B1F2982F9F7D9554933056
:1004E000E0F08336A1F18337C1F1833509F063C0B1
:1004F0002801F2E04F0E511CF801C080D180692D17
:1005000070E036FC02C06FEF7FEFC6010E94D0039F
:100510004C01689437F882010AC00C5F1F4FFFE35B
:10052000F98388248394912C6501E89437F833FE8D
:100530002DC0522C8114910471F5552009F468CF17
:10054000B70180E290E00E94E6035A94F6CFF801EA
:10055000808189830E5F1F4FE4CF2801F2E04F0EA8
:10056000511CF801C080D180692D70E036FC02C0BA
:100570006FEF7FEFC6010E94DB034C018201D5CFF4
:10058000B70180E290E00E94E6032A94281419043F
:1005900009F0B0F7CECFF60137FC859137FE819197
:1005A0006F01B70190E00E94E60351105A94F1E008
:1005B0008F1A9108BFCF843619F0893609F077C0B9
:1005C000F80137FE6BC060817181828193810C5F7D
:1005D0001F4FF32DFF763F2E97FF09C09095809512
:1005E000709561957F4F8F4F9F4F689437F82AE041
:1005F00030E0A5010E941604C82ECA188C2C432C8A
:1006000036FE0CC0E89440F8C91440F434FE05C02E
:1006100032FC03C0F32DFE7E4F2E892C44FE95C084
:10062000FE01EC0DF11D8081803309F087C0242D7F
:10063000297E422E842D8870582E43FC95C040FEA2
:100640008FC09C2C821418F42C0C922C981844FE09
:1006500091C0B70180E390E00E94E60342FE09C02A
:1006600088E790E041FE02C088E590E0B7010E9473
:10067000E603C91408F48AC0CA94D12C9FEFC91AA2
:10068000D90ACA0CDB1CF60182916F01B70190E018
:100690000E94E603AC14BD04B1F74FCF60817181B5
:1006A000072E000C880B990B0E5F1F4F92CFD32C97
:1006B000E894D4F82AE030E0853739F1232D297FFA
:1006C000D22E8F3601F148F48835A9F0F7018681E2
:1006D00097812B96E2E10C949004803749F088379B
:1006E000A9F7D4FE02C06894D2F820E130E00DC032
:1006F0006894D4F8F6CF34FE03C0822F8660D82EDB
:1007000020E132E002C028E030E0F801D7FE0FC05F
:1007100060817181828193810C5F1F4FA5010E94CE
:100720001604C82ECA183D2CE89437F867CF6081AC
:10073000718190E080E00E5F1F4FF0CF42FC02C05D
:10074000839478CF8394839475CF842D867809F42D
:1007500071CFF6CFB70180E290E00E94E603839468
:100760008214C0F3512C73CF522C5818821408F401
:100770006ECFF8CF842D867809F47BCF8BE241FED3
:1007800080E247FC8DE2B70190E071CFB70180E3D2
:1007900090E00E94E6039A946CCF8FEF9FEF99CF81
:1007A000FC010590615070400110D8F7809590953C
:1007B0008E0F9F1F0895FC01615070400190011041
:1007C000D8F7809590958E0F9F1F08950F931F93D4
:1007D000CF93DF93182F092FEB018B8181FD09C087
:1007E0001FEF0FEF812F902FDF91CF911F910F916E
:1007F000089582FF14C02E813F818C819D8128172E
:1008000039073CF4E881F981CF0101969983888307
:1008100010838E819F8101969F838E83E3CFE8852D
:10082000F985812F0995892BA1F3DACFFA01AA273F
:10083000283051F1203181F1E8946F936E7F6E5F23
:100840007F4F8F4F9F4FAF4FB1E03ED0B4E03CD0D1
:10085000670F781F891F9A1FA11D680F791F8A1FB4
:10086000911DA11D6A0F711D811D911DA11D20D01B
:1008700009F468943F912AE0269F11243019305DD5
:100880003193DEF6CF010895462F4770405D4193C6
:10089000B3E00FD0C9F7F6CF462F4F70405D4A3313
:1008A00018F0495D31FD4052419302D0A9F7EACFDB
:1008B000B4E0A6959795879577956795BA95C9F70A
:1008C00000976105710508959B01AC010A2E0694FD
:1008D0005795479537952795BA95C9F7620F731FB6
:1008E000841F951FA01D08952F923F924F925F92F3
:1008F0006F927F928F929F92AF92BF92CF92DF9230
:10090000EF92FF920F931F93CF93DF93CDB7DEB794
:10091000CA1BDB0B0FB6F894DEBF0FBECDBF099428
:100920002A88398848885F846E847D848C849B847F
:10093000AA84B984C884DF80EE80FD800C811B818D
:10094000AA81B981CE0FD11D0FB6F894DEBF0FBEBC
:0A095000CDBFED010895F894FFCF2C
:10095A005330006C6F636B6564202000756E6C6F9A
:10096A00636B6564005334005332005333005331D0
:10097A000050656E656C6F706500253032642F25F6
:10098A003032642F25303264005374617465203D1F
:10099A00202573005374617475733A20257300001F
:00000001FF
